{
  "contractName": "Bank",
  "abi": [
    {
      "inputs": [
        {
          "internalType": "contract Token",
          "name": "_token",
          "type": "address"
        }
      ],
      "stateMutability": "nonpayable",
      "type": "constructor"
    },
    {
      "anonymous": false,
      "inputs": [
        {
          "indexed": true,
          "internalType": "address",
          "name": "user",
          "type": "address"
        },
        {
          "indexed": false,
          "internalType": "uint256",
          "name": "etherAmount",
          "type": "uint256"
        },
        {
          "indexed": false,
          "internalType": "uint256",
          "name": "timeStart",
          "type": "uint256"
        }
      ],
      "name": "Deposit",
      "type": "event"
    },
    {
      "anonymous": false,
      "inputs": [
        {
          "indexed": true,
          "internalType": "address",
          "name": "user",
          "type": "address"
        },
        {
          "indexed": false,
          "internalType": "uint256",
          "name": "etherAmount",
          "type": "uint256"
        },
        {
          "indexed": false,
          "internalType": "uint256",
          "name": "depositTime",
          "type": "uint256"
        },
        {
          "indexed": false,
          "internalType": "uint256",
          "name": "interest",
          "type": "uint256"
        }
      ],
      "name": "Withdraw",
      "type": "event"
    },
    {
      "inputs": [
        {
          "internalType": "address",
          "name": "",
          "type": "address"
        }
      ],
      "name": "depositStart",
      "outputs": [
        {
          "internalType": "uint256",
          "name": "",
          "type": "uint256"
        }
      ],
      "stateMutability": "view",
      "type": "function",
      "constant": true
    },
    {
      "inputs": [
        {
          "internalType": "address",
          "name": "",
          "type": "address"
        }
      ],
      "name": "isDeposited",
      "outputs": [
        {
          "internalType": "bool",
          "name": "",
          "type": "bool"
        }
      ],
      "stateMutability": "view",
      "type": "function",
      "constant": true
    },
    {
      "inputs": [],
      "name": "token",
      "outputs": [
        {
          "internalType": "contract Token",
          "name": "",
          "type": "address"
        }
      ],
      "stateMutability": "view",
      "type": "function",
      "constant": true
    },
    {
      "inputs": [
        {
          "internalType": "address",
          "name": "",
          "type": "address"
        }
      ],
      "name": "weiBalanceOf",
      "outputs": [
        {
          "internalType": "uint256",
          "name": "",
          "type": "uint256"
        }
      ],
      "stateMutability": "view",
      "type": "function",
      "constant": true
    },
    {
      "inputs": [],
      "name": "deposit",
      "outputs": [],
      "stateMutability": "payable",
      "type": "function",
      "payable": true
    },
    {
      "inputs": [],
      "name": "withdraw",
      "outputs": [],
      "stateMutability": "nonpayable",
      "type": "function"
    }
  ],
  "bytecode": "0x608060405234801561001057600080fd5b50604051610e06380380610e06833981810160405281019061003291906100ed565b806000806101000a81548173ffffffffffffffffffffffffffffffffffffffff021916908373ffffffffffffffffffffffffffffffffffffffff1602179055505061011a565b600080fd5b600073ffffffffffffffffffffffffffffffffffffffff82169050919050565b60006100a88261007d565b9050919050565b60006100ba8261009d565b9050919050565b6100ca816100af565b81146100d557600080fd5b50565b6000815190506100e7816100c1565b92915050565b60006020828403121561010357610102610078565b5b6000610111848285016100d8565b91505092915050565b610cdd806101296000396000f3fe6080604052600436106100555760003560e01c80633ccfd60b1461005a578063737320241461007157806398309e3d146100ae578063d0e30db0146100eb578063fc0c546a146100f5578063ff87930a14610120575b600080fd5b34801561006657600080fd5b5061006f61015d565b005b34801561007d57600080fd5b5061009860048036038101906100939190610810565b610506565b6040516100a59190610858565b60405180910390f35b3480156100ba57600080fd5b506100d560048036038101906100d09190610810565b610526565b6040516100e2919061088c565b60405180910390f35b6100f361053e565b005b34801561010157600080fd5b5061010a610771565b6040516101179190610906565b60405180910390f35b34801561012c57600080fd5b5061014760048036038101906101429190610810565b610795565b604051610154919061088c565b60405180910390f35b60011515600360003373ffffffffffffffffffffffffffffffffffffffff1673ffffffffffffffffffffffffffffffffffffffff16815260200190815260200160002060009054906101000a900460ff161515146101f0576040517f08c379a00000000000000000000000000000000000000000000000000000000081526004016101e79061097e565b60405180910390fd5b6000600160003373ffffffffffffffffffffffffffffffffffffffff1673ffffffffffffffffffffffffffffffffffffffff1681526020019081526020016000205490506000600260003373ffffffffffffffffffffffffffffffffffffffff1673ffffffffffffffffffffffffffffffffffffffff168152602001908152602001600020544261028191906109cd565b90506000662386f26fc10000600160003373ffffffffffffffffffffffffffffffffffffffff1673ffffffffffffffffffffffffffffffffffffffff168152602001908152602001600020546102d79190610a30565b6301e337316102e69190610a61565b9050600082826102f69190610a61565b90503373ffffffffffffffffffffffffffffffffffffffff166108fc859081150290604051600060405180830381858888f1935050505015801561033e573d6000803e3d6000fd5b5060008054906101000a900473ffffffffffffffffffffffffffffffffffffffff1673ffffffffffffffffffffffffffffffffffffffff166340c10f1933836040518363ffffffff1660e01b815260040161039a929190610aca565b600060405180830381600087803b1580156103b457600080fd5b505af11580156103c8573d6000803e3d6000fd5b505050506000600260003373ffffffffffffffffffffffffffffffffffffffff1673ffffffffffffffffffffffffffffffffffffffff168152602001908152602001600020819055506000600160003373ffffffffffffffffffffffffffffffffffffffff1673ffffffffffffffffffffffffffffffffffffffff168152602001908152602001600020819055506000600360003373ffffffffffffffffffffffffffffffffffffffff1673ffffffffffffffffffffffffffffffffffffffff16815260200190815260200160002060006101000a81548160ff0219169083151502179055503373ffffffffffffffffffffffffffffffffffffffff167f02f25270a4d87bea75db541cdfe559334a275b4a233520ed6c0a2429667cca948585846040516104f893929190610af3565b60405180910390a250505050565b60036020528060005260406000206000915054906101000a900460ff1681565b60016020528060005260406000206000915090505481565b60001515600360003373ffffffffffffffffffffffffffffffffffffffff1673ffffffffffffffffffffffffffffffffffffffff16815260200190815260200160002060009054906101000a900460ff161515146105d1576040517f08c379a00000000000000000000000000000000000000000000000000000000081526004016105c890610b76565b60405180910390fd5b662386f26fc1000034101561061b576040517f08c379a000000000000000000000000000000000000000000000000000000000815260040161061290610c08565b60405180910390fd5b34600160003373ffffffffffffffffffffffffffffffffffffffff1673ffffffffffffffffffffffffffffffffffffffff168152602001908152602001600020600082825461066a9190610c28565b9250508190555042600260003373ffffffffffffffffffffffffffffffffffffffff1673ffffffffffffffffffffffffffffffffffffffff16815260200190815260200160002060008282546106c09190610c28565b925050819055506001600360003373ffffffffffffffffffffffffffffffffffffffff1673ffffffffffffffffffffffffffffffffffffffff16815260200190815260200160002060006101000a81548160ff0219169083151502179055503373ffffffffffffffffffffffffffffffffffffffff167f90890809c654f11d6e72a28fa60149770a0d11ec6c92319d6ceb2bb0a4ea1a153442604051610767929190610c7e565b60405180910390a2565b60008054906101000a900473ffffffffffffffffffffffffffffffffffffffff1681565b60026020528060005260406000206000915090505481565b600080fd5b600073ffffffffffffffffffffffffffffffffffffffff82169050919050565b60006107dd826107b2565b9050919050565b6107ed816107d2565b81146107f857600080fd5b50565b60008135905061080a816107e4565b92915050565b600060208284031215610826576108256107ad565b5b6000610834848285016107fb565b91505092915050565b60008115159050919050565b6108528161083d565b82525050565b600060208201905061086d6000830184610849565b92915050565b6000819050919050565b61088681610873565b82525050565b60006020820190506108a1600083018461087d565b92915050565b6000819050919050565b60006108cc6108c76108c2846107b2565b6108a7565b6107b2565b9050919050565b60006108de826108b1565b9050919050565b60006108f0826108d3565b9050919050565b610900816108e5565b82525050565b600060208201905061091b60008301846108f7565b92915050565b600082825260208201905092915050565b7f4572726f722c206e6f206465706f736974206163746976650000000000000000600082015250565b6000610968601883610921565b915061097382610932565b602082019050919050565b600060208201905081810360008301526109978161095b565b9050919050565b7f4e487b7100000000000000000000000000000000000000000000000000000000600052601160045260246000fd5b60006109d882610873565b91506109e383610873565b9250828210156109f6576109f561099e565b5b828203905092915050565b7f4e487b7100000000000000000000000000000000000000000000000000000000600052601260045260246000fd5b6000610a3b82610873565b9150610a4683610873565b925082610a5657610a55610a01565b5b828204905092915050565b6000610a6c82610873565b9150610a7783610873565b9250817fffffffffffffffffffffffffffffffffffffffffffffffffffffffffffffffff0483118215151615610ab057610aaf61099e565b5b828202905092915050565b610ac4816107d2565b82525050565b6000604082019050610adf6000830185610abb565b610aec602083018461087d565b9392505050565b6000606082019050610b08600083018661087d565b610b15602083018561087d565b610b22604083018461087d565b949350505050565b7f4572726f722c206465706f73697420616c726561647920616374697665000000600082015250565b6000610b60601d83610921565b9150610b6b82610b2a565b602082019050919050565b60006020820190508181036000830152610b8f81610b53565b9050919050565b7f4572726f722c206465706f736974206d757374206265203e3d20302e3031204560008201527f5448000000000000000000000000000000000000000000000000000000000000602082015250565b6000610bf2602283610921565b9150610bfd82610b96565b604082019050919050565b60006020820190508181036000830152610c2181610be5565b9050919050565b6000610c3382610873565b9150610c3e83610873565b9250827fffffffffffffffffffffffffffffffffffffffffffffffffffffffffffffffff03821115610c7357610c7261099e565b5b828201905092915050565b6000604082019050610c93600083018561087d565b610ca0602083018461087d565b939250505056fea2646970667358221220614cce1a59ce518e0074409bb1ef50e0dcc753d0b473326f736a74b57713b51264736f6c634300080a0033",
  "immutableReferences": {},
  "source": "// SPDX-License-Identifier: MIT\r\npragma solidity 0.8.10;\r\n\r\nimport './Token.sol';\r\n\r\ncontract Bank {\r\n    Token public token;\r\n\r\n    constructor(Token _token) {\r\n        token = _token;\r\n    }\r\n    // The balance of depositor in wei\r\n    mapping (address=>uint) public weiBalanceOf;\r\n    // Track the deposit time for the depositor\r\n    mapping(address => uint) public depositStart;\r\n    // Status of deposit and borrow\r\n    mapping (address=>bool) public isDeposited;\r\n\r\n    event Deposit(address indexed user, uint etherAmount, uint timeStart);\r\n    event Withdraw(address indexed user, uint etherAmount, uint depositTime, uint interest);\r\n\r\n    // Deposit funds to the bank\r\n    function deposit() payable public {\r\n        require(isDeposited[msg.sender] == false, 'Error, deposit already active');\r\n        // Require that the amount sent by user is greater than 0.01 ETH\r\n        require(msg.value >= 0.01 ether,'Error, deposit must be >= 0.01 ETH');\r\n        // Add the deposit value for the user\r\n        weiBalanceOf[msg.sender] += msg.value;\r\n        // Set the deposit timestamp for the user\r\n        depositStart[msg.sender] += block.timestamp;\r\n        // Set deposit status for user\r\n        isDeposited[msg.sender] = true;\r\n\r\n        emit Deposit(msg.sender, msg.value, block.timestamp);\r\n    }\r\n\r\n    // Withdraw funds from the bank\r\n    function withdraw() public {\r\n        require(isDeposited[msg.sender] == true,'Error, no deposit active');\r\n        // Get the deposit balance of user\r\n        uint userBalance = weiBalanceOf[msg.sender];\r\n        // Check the hold time for user\r\n        uint depositTime = block.timestamp - depositStart[msg.sender];\r\n        // Calculate the interest\r\n         /*\r\n            Principal amount = 0.01 ETH (min deposit) = 10e16 Wei\r\n            Rate = 10% = 0.001 ETH = 10e15 Wei (ETH interest earned over 1 year)\r\n            Time = 1 Year = 31577600 seconds\r\n\r\n            Wei earned as interest per second for 0.01 ETH deposit = ETH interest earned over 1 year / Number of seconds in 1 year\r\n                                                                   = 10e15 Wei / 31577600 s\r\n                                                                   = 31668017 Wei/s\r\n        \r\n            Wei earned as interest per second for x ETH desposit = IPS for 0.01 ETH * (x ETH / 0.01 ETH)\r\n        */\r\n        uint interestPerSecond = 31668017 * (weiBalanceOf[msg.sender]/0.01 ether);\r\n        uint interest = interestPerSecond * depositTime;\r\n        // Send the funds to user\r\n        payable(msg.sender).transfer(userBalance);\r\n        // Send the deposit reward tokens to user\r\n        token.mint(msg.sender, interest);\r\n        // Reset depostor data\r\n        depositStart[msg.sender] = 0;\r\n        weiBalanceOf[msg.sender] = 0;\r\n        isDeposited[msg.sender] = false;\r\n\r\n        emit Withdraw(msg.sender, userBalance, depositTime, interest);\r\n    }\r\n}",
  "sourcePath": "E:\\Projects\\blockchain\\dbank\\contracts\\Bank.sol",
  "compiler": {
    "name": "solc",
    "version": "0.8.10+commit.fc410830.Emscripten.clang"
  },
  "schemaVersion": "3.4.3",
  "updatedAt": "2021-11-18T14:10:13.237Z",
  "networkType": "ethereum",
  "devdoc": {
    "kind": "dev",
    "methods": {},
    "version": 1
  },
  "userdoc": {
    "kind": "user",
    "methods": {},
    "version": 1
  }
}